{
  "contractName": "METFaucet",
  "abi": [
    {
      "inputs": [
        {
          "internalType": "address",
          "name": "_METoken",
          "type": "address"
        },
        {
          "internalType": "address",
          "name": "_METOwner",
          "type": "address"
        }
      ],
      "payable": false,
      "stateMutability": "nonpayable",
      "type": "constructor"
    },
    {
      "payable": true,
      "stateMutability": "payable",
      "type": "fallback"
    },
    {
      "constant": true,
      "inputs": [],
      "name": "METOwner",
      "outputs": [
        {
          "internalType": "address",
          "name": "",
          "type": "address"
        }
      ],
      "payable": false,
      "stateMutability": "view",
      "type": "function"
    },
    {
      "constant": true,
      "inputs": [],
      "name": "METoken",
      "outputs": [
        {
          "internalType": "contract ERC20",
          "name": "",
          "type": "address"
        }
      ],
      "payable": false,
      "stateMutability": "view",
      "type": "function"
    },
    {
      "constant": false,
      "inputs": [
        {
          "internalType": "uint256",
          "name": "withdraw_amount",
          "type": "uint256"
        }
      ],
      "name": "withdraw",
      "outputs": [],
      "payable": false,
      "stateMutability": "nonpayable",
      "type": "function"
    }
  ],
  "bytecode": "0x608060405234801561001057600080fd5b506040516103ce3803806103ce8339818101604052604081101561003357600080fd5b810190808051906020019092919080519060200190929190505050816000806101000a81548173ffffffffffffffffffffffffffffffffffffffff021916908373ffffffffffffffffffffffffffffffffffffffff16021790555080600160006101000a81548173ffffffffffffffffffffffffffffffffffffffff021916908373ffffffffffffffffffffffffffffffffffffffff16021790555050506102ee806100e06000396000f3fe6080604052600436106100345760003560e01c80632e1a7d4d14610039578063ad577be314610074578063f27f0fac146100cb575b600080fd5b34801561004557600080fd5b506100726004803603602081101561005c57600080fd5b8101908080359060200190929190505050610122565b005b34801561008057600080fd5b5061008961026e565b604051808273ffffffffffffffffffffffffffffffffffffffff1673ffffffffffffffffffffffffffffffffffffffff16815260200191505060405180910390f35b3480156100d757600080fd5b506100e0610293565b604051808273ffffffffffffffffffffffffffffffffffffffff1673ffffffffffffffffffffffffffffffffffffffff16815260200191505060405180910390f35b6103e881111561013157600080fd5b6000809054906101000a900473ffffffffffffffffffffffffffffffffffffffff1673ffffffffffffffffffffffffffffffffffffffff166323b872dd600160009054906101000a900473ffffffffffffffffffffffffffffffffffffffff1633846040518463ffffffff1660e01b8152600401808473ffffffffffffffffffffffffffffffffffffffff1673ffffffffffffffffffffffffffffffffffffffff1681526020018373ffffffffffffffffffffffffffffffffffffffff1673ffffffffffffffffffffffffffffffffffffffff1681526020018281526020019350505050602060405180830381600087803b15801561022f57600080fd5b505af1158015610243573d6000803e3d6000fd5b505050506040513d602081101561025957600080fd5b81019080805190602001909291905050505050565b6000809054906101000a900473ffffffffffffffffffffffffffffffffffffffff1681565b600160009054906101000a900473ffffffffffffffffffffffffffffffffffffffff168156fea265627a7a723158203047d4079f320345e6b1e69c507d4730f4dc3af6aae578d7a510180f145f827664736f6c63430005100032",
  "source": "// pragma solidity ^0.4.19;\npragma solidity >=0.4.22 <0.9.0;\nimport 'openzeppelin-solidity/contracts/token/ERC20/ERC20.sol';\n// A faucet for ERC20 token MET\ncontract METFaucet {\n    ERC20 public METoken;\n    address public METOwner;\n    \n// METFaucet constructor, provide the address of METoken contract and\n// the owner address we will be approved to transferFrom\nconstructor(address _METoken, address _METOwner) public {\n // Initialize the METoken from the address provided\nMEToken = ERC20(_METoken);\nMETOwner = _METOwner;\n}\nfunction withdraw(uint withdraw_amount) public {\n// Limit withdrawal amount to 10 MET\nrequire(withdraw_amount <= 1000);\n// Use the transferFrom function of METoken\nMEToken.transferFrom(METOwner, msg.sender, withdraw_amount);\n}\n// REJECT any incoming ether\nfunction () external payable { revert(); }\n\n}",
  "sourcePath": "/home/narasimha/Desktop/METFaucet/contracts/METFaucet.sol",
  "compiler": {
    "name": "solc",
    "version": "0.5.16+commit.9c3226ce.Emscripten.clang"
  },
  "schemaVersion": "3.3.4",
  "updatedAt": "2021-03-13T09:53:31.698Z",
  "devdoc": {
    "methods": {}
  },
  "userdoc": {
    "methods": {}
  }
}